:100000000C942A000C9434000C9434000C943400AA
:100010000C9434000C9434000C9434000C94340090
:100020000C9434000C9434000C9434000C94340080
:100030000C9434000C9434000C9434000C94340070
:100040000C9434000C9434000C9434000C94340060
:100050000C94340011241FBECFE5D4E0DEBFCDBF29
:100060000E9458000C9461000C940000D298DA9A17
:10007000D398DB9AD498DC9AD598DD9AD698DE9AF4
:10008000D798DF9A0895CA9902C0D99801C0D99A21
:10009000CB9902C0D99801C0D99ACE9902C0D998FB
:1000A00001C0D99ACE9902C0D9980895D99A0895D5
:1000B0000E943600BB9AC39AD19AD99A0E944300F3
:0600C000FDCFF894FFCF14
:00000001FF
