:100000000C942A000C9434000C9434000C943400AA
:100010000C9434000C9434000C9434000C94340090
:100020000C9434000C9434000C9434000C94340080
:100030000C9434000C9434000C9434000C94340070
:100040000C9434000C9434000C9434000C94340060
:100050000C94340011241FBECFE5D4E0DEBFCDBF29
:100060000E9473000C947F000C940000D298DA9ADE
:10007000D398DB9AD498DC9AD598DD9AD698DE9AF4
:10008000D798DF9A0895BB9A8AE783BF1CBE08956C
:10009000CE9913C08CB790E08D3C910524F48CB7B9
:1000A0008D5C8CBF01C01CBE80EB94E028EB30E07F
:1000B000F9013197F1F70197D9F70895CA9902C06C
:1000C000D9980895D99A08950E945E00CB9902C0EC
:1000D000D99801C0D99A0E944800CF9902C0D998F6
:1000E0000895D99A08950E943600BB9A8AE783BF83
:1000F0001CBEC398D19AD99A0E946400FDCFF8948F
:02010000FFCF2F
:00000001FF
