:100000000C942A000C9434000C9434000C943400AA
:100010000C9434000C9434000C9434000C94340090
:100020000C9434000C9434000C9434000C94340080
:100030000C9434000C9434000C9434000C94340070
:100040000C9434000C9434000C9434000C94340060
:100050000C94340011241FBECFE5D4E0DEBFCDBF29
:100060000E94CF000C94E3000C940000BD9ABF9A4C
:10007000BC9A81E58DB9089592B380729F7D892BDA
:1000800082BB93986FB9779BFECF939A08958B9A12
:10009000939A8D9A8C9A949880E198E4FC01319718
:1000A000F1F7949A0197F1F780E060E40E943C0038
:1000B00080E061EA0E943C0080E060EC0E943C002D
:1000C00080E065EA0E943C0080E066EA0E943C0015
:1000D00080EB94E028EB30E0F9013197F1F70197DC
:1000E000D9F780E062EA0E943C0080E06FE20E9463
:1000F0003C0080E067E20E943C0080E061E80E94F2
:100100003C0080E060E10E943C0080E06AEF0E94D9
:100110003C0080E060E90E943C0080E06FEA0E94C1
:100120003C000895D298DA9AD398DB9AD498DC9A56
:10013000D598DD9AD698DE9AD798DF9A0895BB9A1B
:100140008AE783BF1CBE0895CE9913C08CB790E098
:100150008D3C910524F48CB78D5C8CBF01C01CBE16
:1001600080EB94E028EB30E0F9013197F1F701974B
:10017000D9F70895CA9902C0D9980895D99A0895CF
:100180000E94BA00CB9902C0D99801C0D99A0E94A6
:10019000A400CF9902C0D9980895D99A08950E94D1
:1001A0003600BB9AC3980E949200BB9A8AE783BF2D
:1001B0001CBED19AD998C39A0E944700D99AC39875
:0A01C0000E94C000FDCFF894FFCFAD
:00000001FF
