:100000000C942A000C943C000C943C000C943C0092
:100010000C943C000C943C000C943C000C943C0070
:100020000C943C000C943C000C943C000C943C0060
:100030000C943C000C943C000C943C000C943C0050
:100040000C943C000C943C000C943C000C943C0040
:100050000C943C0011241FBECFE5D4E0DEBFCDBF21
:1000600013E0A0E6B0E001C01D92A439B107E1F7AA
:100070000E9404010C9418010C940000BD9ABF9AD0
:10008000BC9A81E58DB9089592B380729F7D892BCA
:1000900082BB93986FB9779BFECF939A08958B9A02
:1000A000939A8D9A8C9A949880E198E4FC01319708
:1000B000F1F7949A0197F1F780E060E40E94440020
:1000C00080E060EA0E94440080E068EC0E94440006
:1000D00080E064EA0E94440080E066EA0E944400F6
:1000E00080EB94E028EB30E0F9013197F1F70197CC
:1000F000D9F780E062EA0E94440080E06FE20E944B
:10010000440080E067E20E94440080E061E80E94D1
:10011000440080E060E10E94440080E06AEF0E94B9
:10012000440080E060E90E94440080E06FEA0E94A1
:10013000440008951F93182F682F6F7080E00E946D
:10014000440012951F70106180E0612F0E944400EE
:100150001F910895682F606B80E00E94440008950D
:100160000F931F9300E0802F0E94AA0010E0812FC0
:100170000E949A008FEF60E00E9444001F5F1636D5
:10018000B1F70F5F083079F71F910F910895D2985A
:10019000DA9AD398DB9AD498DC9AD598DD9AD698D7
:1001A000DE9AD798DF9A0895BB9A8AE783BF1CBE70
:1001B0000895CE9913C08CB790E08D3C910524F43E
:1001C0008CB78D5C8CBF01C01CBE80EB94E028EB2B
:1001D00030E0F9013197F1F70197D9F70895CA99FD
:1001E00002C0D9980895D99A08950E94EF00CB993A
:1001F00002C0D99801C0D99A0E94D900CF9902C0F3
:10020000D9980895D99A08950E943E00BB9AC39840
:100210000E94C700BB9A8AE783BF1CBED19AD998B7
:10022000C39A0E944F00D99AC3980E94F500FDCF4F
:04023000F894FFCF70
:00000001FF
